{
	"data": {
		"bytecode": {
			"linkReferences": {},
			"object": "6080604052348015600e575f5ffd5b506115d28061001c5f395ff3fe608060405234801561000f575f5ffd5b5060043610610086575f3560e01c806392a3351a1161005957806392a3351a146100fa5780639e0943f81461012d578063edde19ff1461015d578063fddbf5fb1461017957610086565b80630cde08e01461008a57806320fb63fd146100a65780633101af7a146100c25780637af0e0f9146100de575b5f5ffd5b6100a4600480360381019061009f9190610c17565b610195565b005b6100c060048036038101906100bb9190610c17565b61021d565b005b6100dc60048036038101906100d79190610c71565b6102a6565b005b6100f860048036038101906100f39190610c71565b610348565b005b610114600480360381019061010f9190610c71565b6103ea565b6040516101249493929190610d7e565b60405180910390f35b61014760048036038101906101429190610c71565b61053c565b6040516101549190610e9c565b60405180910390f35b61017760048036038101906101729190610ebc565b6106d8565b005b610193600480360381019061018e9190610c71565b6107d7565b005b805f83815481106101a9576101a8610f32565b5b905f5260205f2090600402015f0190816101c3919061115c565b507faae9eb9222611b0ef6dc0078f8e370ee5aae47f58cc4decb35eb7ed8efb0d5825f83815481106101f8576101f7610f32565b5b905f5260205f209060040201604051610211919061137b565b60405180910390a15050565b805f838154811061023157610230610f32565b5b905f5260205f209060040201600101908161024c919061115c565b507fb0e0737b2a717d4ee55a56cf2ef39130739c10245853cb0b1a8f6949de6067a25f838154811061028157610280610f32565b5b905f5260205f20906004020160405161029a919061137b565b60405180910390a15050565b60015f82815481106102bb576102ba610f32565b5b905f5260205f2090600402016003015f6101000a81548160ff021916908360028111156102eb576102ea610d0b565b5b02179055507f0e179748d3ff4b55fc7f497da083d1d7884e97a2d6b2284d507e45b4c74e8c0e5f828154811061032457610323610f32565b5b905f5260205f20906004020160405161033d919061137b565b60405180910390a150565b60025f828154811061035d5761035c610f32565b5b905f5260205f2090600402016003015f6101000a81548160ff0219169083600281111561038d5761038c610d0b565b5b02179055507f0e179748d3ff4b55fc7f497da083d1d7884e97a2d6b2284d507e45b4c74e8c0e5f82815481106103c6576103c5610f32565b5b905f5260205f2090600402016040516103df919061137b565b60405180910390a150565b5f81815481106103f8575f80fd5b905f5260205f2090600402015f91509050805f01805461041790610f8c565b80601f016020809104026020016040519081016040528092919081815260200182805461044390610f8c565b801561048e5780601f106104655761010080835404028352916020019161048e565b820191905f5260205f20905b81548152906001019060200180831161047157829003601f168201915b5050505050908060010180546104a390610f8c565b80601f01602080910402602001604051908101604052809291908181526020018280546104cf90610f8c565b801561051a5780601f106104f15761010080835404028352916020019161051a565b820191905f5260205f20905b8154815290600101906020018083116104fd57829003601f168201915b505050505090806002015490806003015f9054906101000a900460ff16905084565b610544610a07565b5f828154811061055757610556610f32565b5b905f5260205f2090600402016040518060800160405290815f8201805461057d90610f8c565b80601f01602080910402602001604051908101604052809291908181526020018280546105a990610f8c565b80156105f45780601f106105cb576101008083540402835291602001916105f4565b820191905f5260205f20905b8154815290600101906020018083116105d757829003601f168201915b5050505050815260200160018201805461060d90610f8c565b80601f016020809104026020016040519081016040528092919081815260200182805461063990610f8c565b80156106845780601f1061065b57610100808354040283529160200191610684565b820191905f5260205f20905b81548152906001019060200180831161066757829003601f168201915b5050505050815260200160028201548152602001600382015f9054906101000a900460ff1660028111156106bb576106ba610d0b565b5b60028111156106cd576106cc610d0b565b5b815250509050919050565b5f60405180608001604052808481526020018381526020014281526020015f600281111561070957610708610d0b565b5b81525090505f81908060018154018082558091505060019003905f5260205f2090600402015f909190919091505f820151815f019081610749919061115c565b50602082015181600101908161075f919061115c565b50604082015181600201556060820151816003015f6101000a81548160ff0219169083600281111561079457610793610d0b565b5b021790555050507f653714e0944035f2be94c46cc4a8b56cb71f80d9e27ca13adc440e3d5fe7b8a5816040516107ca9190610e9c565b60405180910390a1505050565b5f5f8054905090505f6001826107ed91906113c8565b815481106107fe576107fd610f32565b5b905f5260205f2090600402015f015f838154811061081f5761081e610f32565b5b905f5260205f2090600402015f0190816108399190611422565b505f60018261084891906113c8565b8154811061085957610858610f32565b5b905f5260205f2090600402016001015f838154811061087b5761087a610f32565b5b905f5260205f20906004020160010190816108969190611422565b505f6001826108a591906113c8565b815481106108b6576108b5610f32565b5b905f5260205f209060040201600201545f83815481106108d9576108d8610f32565b5b905f5260205f209060040201600201819055505f6001826108fa91906113c8565b8154811061090b5761090a610f32565b5b905f5260205f2090600402016003015f9054906101000a900460ff165f838154811061093a57610939610f32565b5b905f5260205f2090600402016003015f6101000a81548160ff0219169083600281111561096a57610969610d0b565b5b02179055505f8054806109805761097f611507565b5b600190038181905f5260205f2090600402015f5f82015f6109a19190610a3f565b600182015f6109b09190610a3f565b600282015f9055600382015f6101000a81549060ff0219169055505090557f3161055cca1a1449621e9fa53c98d978c08b9dcbb09a44415a40bf21906f10706040516109fb9061157e565b60405180910390a15050565b604051806080016040528060608152602001606081526020015f81526020015f6002811115610a3957610a38610d0b565b5b81525090565b508054610a4b90610f8c565b5f825580601f10610a5c5750610a79565b601f0160209004905f5260205f2090810190610a789190610a7c565b5b50565b5b80821115610a93575f815f905550600101610a7d565b5090565b5f604051905090565b5f5ffd5b5f5ffd5b5f819050919050565b610aba81610aa8565b8114610ac4575f5ffd5b50565b5f81359050610ad581610ab1565b92915050565b5f5ffd5b5f5ffd5b5f601f19601f8301169050919050565b7f4e487b71000000000000000000000000000000000000000000000000000000005f52604160045260245ffd5b610b2982610ae3565b810181811067ffffffffffffffff82111715610b4857610b47610af3565b5b80604052505050565b5f610b5a610a97565b9050610b668282610b20565b919050565b5f67ffffffffffffffff821115610b8557610b84610af3565b5b610b8e82610ae3565b9050602081019050919050565b828183375f83830152505050565b5f610bbb610bb684610b6b565b610b51565b905082815260208101848484011115610bd757610bd6610adf565b5b610be2848285610b9b565b509392505050565b5f82601f830112610bfe57610bfd610adb565b5b8135610c0e848260208601610ba9565b91505092915050565b5f5f60408385031215610c2d57610c2c610aa0565b5b5f610c3a85828601610ac7565b925050602083013567ffffffffffffffff811115610c5b57610c5a610aa4565b5b610c6785828601610bea565b9150509250929050565b5f60208284031215610c8657610c85610aa0565b5b5f610c9384828501610ac7565b91505092915050565b5f81519050919050565b5f82825260208201905092915050565b8281835e5f83830152505050565b5f610cce82610c9c565b610cd88185610ca6565b9350610ce8818560208601610cb6565b610cf181610ae3565b840191505092915050565b610d0581610aa8565b82525050565b7f4e487b71000000000000000000000000000000000000000000000000000000005f52602160045260245ffd5b60038110610d4957610d48610d0b565b5b50565b5f819050610d5982610d38565b919050565b5f610d6882610d4c565b9050919050565b610d7881610d5e565b82525050565b5f6080820190508181035f830152610d968187610cc4565b90508181036020830152610daa8186610cc4565b9050610db96040830185610cfc565b610dc66060830184610d6f565b95945050505050565b5f82825260208201905092915050565b5f610de982610c9c565b610df38185610dcf565b9350610e03818560208601610cb6565b610e0c81610ae3565b840191505092915050565b610e2081610aa8565b82525050565b610e2f81610d5e565b82525050565b5f608083015f8301518482035f860152610e4f8282610ddf565b91505060208301518482036020860152610e698282610ddf565b9150506040830151610e7e6040860182610e17565b506060830151610e916060860182610e26565b508091505092915050565b5f6020820190508181035f830152610eb48184610e35565b905092915050565b5f5f60408385031215610ed257610ed1610aa0565b5b5f83013567ffffffffffffffff811115610eef57610eee610aa4565b5b610efb85828601610bea565b925050602083013567ffffffffffffffff811115610f1c57610f1b610aa4565b5b610f2885828601610bea565b9150509250929050565b7f4e487b71000000000000000000000000000000000000000000000000000000005f52603260045260245ffd5b7f4e487b71000000000000000000000000000000000000000000000000000000005f52602260045260245ffd5b5f6002820490506001821680610fa357607f821691505b602082108103610fb657610fb5610f5f565b5b50919050565b5f819050815f5260205f209050919050565b5f6020601f8301049050919050565b5f82821b905092915050565b5f600883026110187fffffffffffffffffffffffffffffffffffffffffffffffffffffffffffffffff82610fdd565b6110228683610fdd565b95508019841693508086168417925050509392505050565b5f819050919050565b5f61105d61105861105384610aa8565b61103a565b610aa8565b9050919050565b5f819050919050565b61107683611043565b61108a61108282611064565b848454610fe9565b825550505050565b5f5f905090565b6110a1611092565b6110ac81848461106d565b505050565b5b818110156110cf576110c45f82611099565b6001810190506110b2565b5050565b601f821115611114576110e581610fbc565b6110ee84610fce565b810160208510156110fd578190505b61111161110985610fce565b8301826110b1565b50505b505050565b5f82821c905092915050565b5f6111345f1984600802611119565b1980831691505092915050565b5f61114c8383611125565b9150826002028217905092915050565b61116582610c9c565b67ffffffffffffffff81111561117e5761117d610af3565b5b6111888254610f8c565b6111938282856110d3565b5f60209050601f8311600181146111c4575f84156111b2578287015190505b6111bc8582611141565b865550611223565b601f1984166111d286610fbc565b5f5b828110156111f9578489015182556001820191506020850194506020810190506111d4565b868310156112165784890151611212601f891682611125565b8355505b6001600288020188555050505b505050505050565b5f815461123781610f8c565b6112418186610dcf565b9450600182165f811461125b5760018114611271576112a3565b60ff1983168652811515602002860193506112a3565b61127a85610fbc565b5f5b8381101561129b5781548189015260018201915060208101905061127c565b808801955050505b50505092915050565b5f815f1c9050919050565b5f819050919050565b5f6112d26112cd836112ac565b6112b7565b9050919050565b5f60ff82169050919050565b5f6112f76112f2836112ac565b6112d9565b9050919050565b5f608083015f5f84018583035f870152611318838261122b565b925050600184018583036020870152611331838261122b565b92505060028401549050611344816112c0565b6113516040870182610e17565b5060038401549050611362816112e5565b61136f6060870182610e26565b50819250505092915050565b5f6020820190508181035f83015261139381846112fe565b905092915050565b7f4e487b71000000000000000000000000000000000000000000000000000000005f52601160045260245ffd5b5f6113d282610aa8565b91506113dd83610aa8565b92508282039050818111156113f5576113f461139b565b5b92915050565b5f8154905061140981610f8c565b9050919050565b5f819050815f5260205f209050919050565b818103611430575050611505565b611439826113fb565b67ffffffffffffffff81111561145257611451610af3565b5b61145c8254610f8c565b6114678282856110d3565b5f601f831160018114611494575f8415611482578287015490505b61148c8582611141565b8655506114fe565b601f1984166114a287611410565b96506114ad86610fbc565b5f5b828110156114d4578489015482556001820191506001850194506020810190506114af565b868310156114f157848901546114ed601f891682611125565b8355505b6001600288020188555050505b5050505050505b565b7f4e487b71000000000000000000000000000000000000000000000000000000005f52603160045260245ffd5b7f6f6b0000000000000000000000000000000000000000000000000000000000005f82015250565b5f611568600283610ca6565b915061157382611534565b602082019050919050565b5f6020820190508181035f8301526115958161155c565b905091905056fea264697066735822122040fa5717ab69260e34ad3abb7ed64ccc95d4f1d6e911995000b6f259513a105a64736f6c634300081e0033",
			"opcodes": "PUSH1 0x80 PUSH1 0x40 MSTORE CALLVALUE DUP1 ISZERO PUSH1 0xE JUMPI PUSH0 PUSH0 REVERT JUMPDEST POP PUSH2 0x15D2 DUP1 PUSH2 0x1C PUSH0 CODECOPY PUSH0 RETURN INVALID PUSH1 0x80 PUSH1 0x40 MSTORE CALLVALUE DUP1 ISZERO PUSH2 0xF JUMPI PUSH0 PUSH0 REVERT JUMPDEST POP PUSH1 0x4 CALLDATASIZE LT PUSH2 0x86 JUMPI PUSH0 CALLDATALOAD PUSH1 0xE0 SHR DUP1 PUSH4 0x92A3351A GT PUSH2 0x59 JUMPI DUP1 PUSH4 0x92A3351A EQ PUSH2 0xFA JUMPI DUP1 PUSH4 0x9E0943F8 EQ PUSH2 0x12D JUMPI DUP1 PUSH4 0xEDDE19FF EQ PUSH2 0x15D JUMPI DUP1 PUSH4 0xFDDBF5FB EQ PUSH2 0x179 JUMPI PUSH2 0x86 JUMP JUMPDEST DUP1 PUSH4 0xCDE08E0 EQ PUSH2 0x8A JUMPI DUP1 PUSH4 0x20FB63FD EQ PUSH2 0xA6 JUMPI DUP1 PUSH4 0x3101AF7A EQ PUSH2 0xC2 JUMPI DUP1 PUSH4 0x7AF0E0F9 EQ PUSH2 0xDE JUMPI JUMPDEST PUSH0 PUSH0 REVERT JUMPDEST PUSH2 0xA4 PUSH1 0x4 DUP1 CALLDATASIZE SUB DUP2 ADD SWAP1 PUSH2 0x9F SWAP2 SWAP1 PUSH2 0xC17 JUMP JUMPDEST PUSH2 0x195 JUMP JUMPDEST STOP JUMPDEST PUSH2 0xC0 PUSH1 0x4 DUP1 CALLDATASIZE SUB DUP2 ADD SWAP1 PUSH2 0xBB SWAP2 SWAP1 PUSH2 0xC17 JUMP JUMPDEST PUSH2 0x21D JUMP JUMPDEST STOP JUMPDEST PUSH2 0xDC PUSH1 0x4 DUP1 CALLDATASIZE SUB DUP2 ADD SWAP1 PUSH2 0xD7 SWAP2 SWAP1 PUSH2 0xC71 JUMP JUMPDEST PUSH2 0x2A6 JUMP JUMPDEST STOP JUMPDEST PUSH2 0xF8 PUSH1 0x4 DUP1 CALLDATASIZE SUB DUP2 ADD SWAP1 PUSH2 0xF3 SWAP2 SWAP1 PUSH2 0xC71 JUMP JUMPDEST PUSH2 0x348 JUMP JUMPDEST STOP JUMPDEST PUSH2 0x114 PUSH1 0x4 DUP1 CALLDATASIZE SUB DUP2 ADD SWAP1 PUSH2 0x10F SWAP2 SWAP1 PUSH2 0xC71 JUMP JUMPDEST PUSH2 0x3EA JUMP JUMPDEST PUSH1 0x40 MLOAD PUSH2 0x124 SWAP5 SWAP4 SWAP3 SWAP2 SWAP1 PUSH2 0xD7E JUMP JUMPDEST PUSH1 0x40 MLOAD DUP1 SWAP2 SUB SWAP1 RETURN JUMPDEST PUSH2 0x147 PUSH1 0x4 DUP1 CALLDATASIZE SUB DUP2 ADD SWAP1 PUSH2 0x142 SWAP2 SWAP1 PUSH2 0xC71 JUMP JUMPDEST PUSH2 0x53C JUMP JUMPDEST PUSH1 0x40 MLOAD PUSH2 0x154 SWAP2 SWAP1 PUSH2 0xE9C JUMP JUMPDEST PUSH1 0x40 MLOAD DUP1 SWAP2 SUB SWAP1 RETURN JUMPDEST PUSH2 0x177 PUSH1 0x4 DUP1 CALLDATASIZE SUB DUP2 ADD SWAP1 PUSH2 0x172 SWAP2 SWAP1 PUSH2 0xEBC JUMP JUMPDEST PUSH2 0x6D8 JUMP JUMPDEST STOP JUMPDEST PUSH2 0x193 PUSH1 0x4 DUP1 CALLDATASIZE SUB DUP2 ADD SWAP1 PUSH2 0x18E SWAP2 SWAP1 PUSH2 0xC71 JUMP JUMPDEST PUSH2 0x7D7 JUMP JUMPDEST STOP JUMPDEST DUP1 PUSH0 DUP4 DUP2 SLOAD DUP2 LT PUSH2 0x1A9 JUMPI PUSH2 0x1A8 PUSH2 0xF32 JUMP JUMPDEST JUMPDEST SWAP1 PUSH0 MSTORE PUSH1 0x20 PUSH0 KECCAK256 SWAP1 PUSH1 0x4 MUL ADD PUSH0 ADD SWAP1 DUP2 PUSH2 0x1C3 SWAP2 SWAP1 PUSH2 0x115C JUMP JUMPDEST POP PUSH32 0xAAE9EB9222611B0EF6DC0078F8E370EE5AAE47F58CC4DECB35EB7ED8EFB0D582 PUSH0 DUP4 DUP2 SLOAD DUP2 LT PUSH2 0x1F8 JUMPI PUSH2 0x1F7 PUSH2 0xF32 JUMP JUMPDEST JUMPDEST SWAP1 PUSH0 MSTORE PUSH1 0x20 PUSH0 KECCAK256 SWAP1 PUSH1 0x4 MUL ADD PUSH1 0x40 MLOAD PUSH2 0x211 SWAP2 SWAP1 PUSH2 0x137B JUMP JUMPDEST PUSH1 0x40 MLOAD DUP1 SWAP2 SUB SWAP1 LOG1 POP POP JUMP JUMPDEST DUP1 PUSH0 DUP4 DUP2 SLOAD DUP2 LT PUSH2 0x231 JUMPI PUSH2 0x230 PUSH2 0xF32 JUMP JUMPDEST JUMPDEST SWAP1 PUSH0 MSTORE PUSH1 0x20 PUSH0 KECCAK256 SWAP1 PUSH1 0x4 MUL ADD PUSH1 0x1 ADD SWAP1 DUP2 PUSH2 0x24C SWAP2 SWAP1 PUSH2 0x115C JUMP JUMPDEST POP PUSH32 0xB0E0737B2A717D4EE55A56CF2EF39130739C10245853CB0B1A8F6949DE6067A2 PUSH0 DUP4 DUP2 SLOAD DUP2 LT PUSH2 0x281 JUMPI PUSH2 0x280 PUSH2 0xF32 JUMP JUMPDEST JUMPDEST SWAP1 PUSH0 MSTORE PUSH1 0x20 PUSH0 KECCAK256 SWAP1 PUSH1 0x4 MUL ADD PUSH1 0x40 MLOAD PUSH2 0x29A SWAP2 SWAP1 PUSH2 0x137B JUMP JUMPDEST PUSH1 0x40 MLOAD DUP1 SWAP2 SUB SWAP1 LOG1 POP POP JUMP JUMPDEST PUSH1 0x1 PUSH0 DUP3 DUP2 SLOAD DUP2 LT PUSH2 0x2BB JUMPI PUSH2 0x2BA PUSH2 0xF32 JUMP JUMPDEST JUMPDEST SWAP1 PUSH0 MSTORE PUSH1 0x20 PUSH0 KECCAK256 SWAP1 PUSH1 0x4 MUL ADD PUSH1 0x3 ADD PUSH0 PUSH2 0x100 EXP DUP2 SLOAD DUP2 PUSH1 0xFF MUL NOT AND SWAP1 DUP4 PUSH1 0x2 DUP2 GT ISZERO PUSH2 0x2EB JUMPI PUSH2 0x2EA PUSH2 0xD0B JUMP JUMPDEST JUMPDEST MUL OR SWAP1 SSTORE POP PUSH32 0xE179748D3FF4B55FC7F497DA083D1D7884E97A2D6B2284D507E45B4C74E8C0E PUSH0 DUP3 DUP2 SLOAD DUP2 LT PUSH2 0x324 JUMPI PUSH2 0x323 PUSH2 0xF32 JUMP JUMPDEST JUMPDEST SWAP1 PUSH0 MSTORE PUSH1 0x20 PUSH0 KECCAK256 SWAP1 PUSH1 0x4 MUL ADD PUSH1 0x40 MLOAD PUSH2 0x33D SWAP2 SWAP1 PUSH2 0x137B JUMP JUMPDEST PUSH1 0x40 MLOAD DUP1 SWAP2 SUB SWAP1 LOG1 POP JUMP JUMPDEST PUSH1 0x2 PUSH0 DUP3 DUP2 SLOAD DUP2 LT PUSH2 0x35D JUMPI PUSH2 0x35C PUSH2 0xF32 JUMP JUMPDEST JUMPDEST SWAP1 PUSH0 MSTORE PUSH1 0x20 PUSH0 KECCAK256 SWAP1 PUSH1 0x4 MUL ADD PUSH1 0x3 ADD PUSH0 PUSH2 0x100 EXP DUP2 SLOAD DUP2 PUSH1 0xFF MUL NOT AND SWAP1 DUP4 PUSH1 0x2 DUP2 GT ISZERO PUSH2 0x38D JUMPI PUSH2 0x38C PUSH2 0xD0B JUMP JUMPDEST JUMPDEST MUL OR SWAP1 SSTORE POP PUSH32 0xE179748D3FF4B55FC7F497DA083D1D7884E97A2D6B2284D507E45B4C74E8C0E PUSH0 DUP3 DUP2 SLOAD DUP2 LT PUSH2 0x3C6 JUMPI PUSH2 0x3C5 PUSH2 0xF32 JUMP JUMPDEST JUMPDEST SWAP1 PUSH0 MSTORE PUSH1 0x20 PUSH0 KECCAK256 SWAP1 PUSH1 0x4 MUL ADD PUSH1 0x40 MLOAD PUSH2 0x3DF SWAP2 SWAP1 PUSH2 0x137B JUMP JUMPDEST PUSH1 0x40 MLOAD DUP1 SWAP2 SUB SWAP1 LOG1 POP JUMP JUMPDEST PUSH0 DUP2 DUP2 SLOAD DUP2 LT PUSH2 0x3F8 JUMPI PUSH0 DUP1 REVERT JUMPDEST SWAP1 PUSH0 MSTORE PUSH1 0x20 PUSH0 KECCAK256 SWAP1 PUSH1 0x4 MUL ADD PUSH0 SWAP2 POP SWAP1 POP DUP1 PUSH0 ADD DUP1 SLOAD PUSH2 0x417 SWAP1 PUSH2 0xF8C JUMP JUMPDEST DUP1 PUSH1 0x1F ADD PUSH1 0x20 DUP1 SWAP2 DIV MUL PUSH1 0x20 ADD PUSH1 0x40 MLOAD SWAP1 DUP2 ADD PUSH1 0x40 MSTORE DUP1 SWAP3 SWAP2 SWAP1 DUP2 DUP2 MSTORE PUSH1 0x20 ADD DUP3 DUP1 SLOAD PUSH2 0x443 SWAP1 PUSH2 0xF8C JUMP JUMPDEST DUP1 ISZERO PUSH2 0x48E JUMPI DUP1 PUSH1 0x1F LT PUSH2 0x465 JUMPI PUSH2 0x100 DUP1 DUP4 SLOAD DIV MUL DUP4 MSTORE SWAP2 PUSH1 0x20 ADD SWAP2 PUSH2 0x48E JUMP JUMPDEST DUP3 ADD SWAP2 SWAP1 PUSH0 MSTORE PUSH1 0x20 PUSH0 KECCAK256 SWAP1 JUMPDEST DUP2 SLOAD DUP2 MSTORE SWAP1 PUSH1 0x1 ADD SWAP1 PUSH1 0x20 ADD DUP1 DUP4 GT PUSH2 0x471 JUMPI DUP3 SWAP1 SUB PUSH1 0x1F AND DUP3 ADD SWAP2 JUMPDEST POP POP POP POP POP SWAP1 DUP1 PUSH1 0x1 ADD DUP1 SLOAD PUSH2 0x4A3 SWAP1 PUSH2 0xF8C JUMP JUMPDEST DUP1 PUSH1 0x1F ADD PUSH1 0x20 DUP1 SWAP2 DIV MUL PUSH1 0x20 ADD PUSH1 0x40 MLOAD SWAP1 DUP2 ADD PUSH1 0x40 MSTORE DUP1 SWAP3 SWAP2 SWAP1 DUP2 DUP2 MSTORE PUSH1 0x20 ADD DUP3 DUP1 SLOAD PUSH2 0x4CF SWAP1 PUSH2 0xF8C JUMP JUMPDEST DUP1 ISZERO PUSH2 0x51A JUMPI DUP1 PUSH1 0x1F LT PUSH2 0x4F1 JUMPI PUSH2 0x100 DUP1 DUP4 SLOAD DIV MUL DUP4 MSTORE SWAP2 PUSH1 0x20 ADD SWAP2 PUSH2 0x51A JUMP JUMPDEST DUP3 ADD SWAP2 SWAP1 PUSH0 MSTORE PUSH1 0x20 PUSH0 KECCAK256 SWAP1 JUMPDEST DUP2 SLOAD DUP2 MSTORE SWAP1 PUSH1 0x1 ADD SWAP1 PUSH1 0x20 ADD DUP1 DUP4 GT PUSH2 0x4FD JUMPI DUP3 SWAP1 SUB PUSH1 0x1F AND DUP3 ADD SWAP2 JUMPDEST POP POP POP POP POP SWAP1 DUP1 PUSH1 0x2 ADD SLOAD SWAP1 DUP1 PUSH1 0x3 ADD PUSH0 SWAP1 SLOAD SWAP1 PUSH2 0x100 EXP SWAP1 DIV PUSH1 0xFF AND SWAP1 POP DUP5 JUMP JUMPDEST PUSH2 0x544 PUSH2 0xA07 JUMP JUMPDEST PUSH0 DUP3 DUP2 SLOAD DUP2 LT PUSH2 0x557 JUMPI PUSH2 0x556 PUSH2 0xF32 JUMP JUMPDEST JUMPDEST SWAP1 PUSH0 MSTORE PUSH1 0x20 PUSH0 KECCAK256 SWAP1 PUSH1 0x4 MUL ADD PUSH1 0x40 MLOAD DUP1 PUSH1 0x80 ADD PUSH1 0x40 MSTORE SWAP1 DUP2 PUSH0 DUP3 ADD DUP1 SLOAD PUSH2 0x57D SWAP1 PUSH2 0xF8C JUMP JUMPDEST DUP1 PUSH1 0x1F ADD PUSH1 0x20 DUP1 SWAP2 DIV MUL PUSH1 0x20 ADD PUSH1 0x40 MLOAD SWAP1 DUP2 ADD PUSH1 0x40 MSTORE DUP1 SWAP3 SWAP2 SWAP1 DUP2 DUP2 MSTORE PUSH1 0x20 ADD DUP3 DUP1 SLOAD PUSH2 0x5A9 SWAP1 PUSH2 0xF8C JUMP JUMPDEST DUP1 ISZERO PUSH2 0x5F4 JUMPI DUP1 PUSH1 0x1F LT PUSH2 0x5CB JUMPI PUSH2 0x100 DUP1 DUP4 SLOAD DIV MUL DUP4 MSTORE SWAP2 PUSH1 0x20 ADD SWAP2 PUSH2 0x5F4 JUMP JUMPDEST DUP3 ADD SWAP2 SWAP1 PUSH0 MSTORE PUSH1 0x20 PUSH0 KECCAK256 SWAP1 JUMPDEST DUP2 SLOAD DUP2 MSTORE SWAP1 PUSH1 0x1 ADD SWAP1 PUSH1 0x20 ADD DUP1 DUP4 GT PUSH2 0x5D7 JUMPI DUP3 SWAP1 SUB PUSH1 0x1F AND DUP3 ADD SWAP2 JUMPDEST POP POP POP POP POP DUP2 MSTORE PUSH1 0x20 ADD PUSH1 0x1 DUP3 ADD DUP1 SLOAD PUSH2 0x60D SWAP1 PUSH2 0xF8C JUMP JUMPDEST DUP1 PUSH1 0x1F ADD PUSH1 0x20 DUP1 SWAP2 DIV MUL PUSH1 0x20 ADD PUSH1 0x40 MLOAD SWAP1 DUP2 ADD PUSH1 0x40 MSTORE DUP1 SWAP3 SWAP2 SWAP1 DUP2 DUP2 MSTORE PUSH1 0x20 ADD DUP3 DUP1 SLOAD PUSH2 0x639 SWAP1 PUSH2 0xF8C JUMP JUMPDEST DUP1 ISZERO PUSH2 0x684 JUMPI DUP1 PUSH1 0x1F LT PUSH2 0x65B JUMPI PUSH2 0x100 DUP1 DUP4 SLOAD DIV MUL DUP4 MSTORE SWAP2 PUSH1 0x20 ADD SWAP2 PUSH2 0x684 JUMP JUMPDEST DUP3 ADD SWAP2 SWAP1 PUSH0 MSTORE PUSH1 0x20 PUSH0 KECCAK256 SWAP1 JUMPDEST DUP2 SLOAD DUP2 MSTORE SWAP1 PUSH1 0x1 ADD SWAP1 PUSH1 0x20 ADD DUP1 DUP4 GT PUSH2 0x667 JUMPI DUP3 SWAP1 SUB PUSH1 0x1F AND DUP3 ADD SWAP2 JUMPDEST POP POP POP POP POP DUP2 MSTORE PUSH1 0x20 ADD PUSH1 0x2 DUP3 ADD SLOAD DUP2 MSTORE PUSH1 0x20 ADD PUSH1 0x3 DUP3 ADD PUSH0 SWAP1 SLOAD SWAP1 PUSH2 0x100 EXP SWAP1 DIV PUSH1 0xFF AND PUSH1 0x2 DUP2 GT ISZERO PUSH2 0x6BB JUMPI PUSH2 0x6BA PUSH2 0xD0B JUMP JUMPDEST JUMPDEST PUSH1 0x2 DUP2 GT ISZERO PUSH2 0x6CD JUMPI PUSH2 0x6CC PUSH2 0xD0B JUMP JUMPDEST JUMPDEST DUP2 MSTORE POP POP SWAP1 POP SWAP2 SWAP1 POP JUMP JUMPDEST PUSH0 PUSH1 0x40 MLOAD DUP1 PUSH1 0x80 ADD PUSH1 0x40 MSTORE DUP1 DUP5 DUP2 MSTORE PUSH1 0x20 ADD DUP4 DUP2 MSTORE PUSH1 0x20 ADD TIMESTAMP DUP2 MSTORE PUSH1 0x20 ADD PUSH0 PUSH1 0x2 DUP2 GT ISZERO PUSH2 0x709 JUMPI PUSH2 0x708 PUSH2 0xD0B JUMP JUMPDEST JUMPDEST DUP2 MSTORE POP SWAP1 POP PUSH0 DUP2 SWAP1 DUP1 PUSH1 0x1 DUP2 SLOAD ADD DUP1 DUP3 SSTORE DUP1 SWAP2 POP POP PUSH1 0x1 SWAP1 SUB SWAP1 PUSH0 MSTORE PUSH1 0x20 PUSH0 KECCAK256 SWAP1 PUSH1 0x4 MUL ADD PUSH0 SWAP1 SWAP2 SWAP1 SWAP2 SWAP1 SWAP2 POP PUSH0 DUP3 ADD MLOAD DUP2 PUSH0 ADD SWAP1 DUP2 PUSH2 0x749 SWAP2 SWAP1 PUSH2 0x115C JUMP JUMPDEST POP PUSH1 0x20 DUP3 ADD MLOAD DUP2 PUSH1 0x1 ADD SWAP1 DUP2 PUSH2 0x75F SWAP2 SWAP1 PUSH2 0x115C JUMP JUMPDEST POP PUSH1 0x40 DUP3 ADD MLOAD DUP2 PUSH1 0x2 ADD SSTORE PUSH1 0x60 DUP3 ADD MLOAD DUP2 PUSH1 0x3 ADD PUSH0 PUSH2 0x100 EXP DUP2 SLOAD DUP2 PUSH1 0xFF MUL NOT AND SWAP1 DUP4 PUSH1 0x2 DUP2 GT ISZERO PUSH2 0x794 JUMPI PUSH2 0x793 PUSH2 0xD0B JUMP JUMPDEST JUMPDEST MUL OR SWAP1 SSTORE POP POP POP PUSH32 0x653714E0944035F2BE94C46CC4A8B56CB71F80D9E27CA13ADC440E3D5FE7B8A5 DUP2 PUSH1 0x40 MLOAD PUSH2 0x7CA SWAP2 SWAP1 PUSH2 0xE9C JUMP JUMPDEST PUSH1 0x40 MLOAD DUP1 SWAP2 SUB SWAP1 LOG1 POP POP POP JUMP JUMPDEST PUSH0 PUSH0 DUP1 SLOAD SWAP1 POP SWAP1 POP PUSH0 PUSH1 0x1 DUP3 PUSH2 0x7ED SWAP2 SWAP1 PUSH2 0x13C8 JUMP JUMPDEST DUP2 SLOAD DUP2 LT PUSH2 0x7FE JUMPI PUSH2 0x7FD PUSH2 0xF32 JUMP JUMPDEST JUMPDEST SWAP1 PUSH0 MSTORE PUSH1 0x20 PUSH0 KECCAK256 SWAP1 PUSH1 0x4 MUL ADD PUSH0 ADD PUSH0 DUP4 DUP2 SLOAD DUP2 LT PUSH2 0x81F JUMPI PUSH2 0x81E PUSH2 0xF32 JUMP JUMPDEST JUMPDEST SWAP1 PUSH0 MSTORE PUSH1 0x20 PUSH0 KECCAK256 SWAP1 PUSH1 0x4 MUL ADD PUSH0 ADD SWAP1 DUP2 PUSH2 0x839 SWAP2 SWAP1 PUSH2 0x1422 JUMP JUMPDEST POP PUSH0 PUSH1 0x1 DUP3 PUSH2 0x848 SWAP2 SWAP1 PUSH2 0x13C8 JUMP JUMPDEST DUP2 SLOAD DUP2 LT PUSH2 0x859 JUMPI PUSH2 0x858 PUSH2 0xF32 JUMP JUMPDEST JUMPDEST SWAP1 PUSH0 MSTORE PUSH1 0x20 PUSH0 KECCAK256 SWAP1 PUSH1 0x4 MUL ADD PUSH1 0x1 ADD PUSH0 DUP4 DUP2 SLOAD DUP2 LT PUSH2 0x87B JUMPI PUSH2 0x87A PUSH2 0xF32 JUMP JUMPDEST JUMPDEST SWAP1 PUSH0 MSTORE PUSH1 0x20 PUSH0 KECCAK256 SWAP1 PUSH1 0x4 MUL ADD PUSH1 0x1 ADD SWAP1 DUP2 PUSH2 0x896 SWAP2 SWAP1 PUSH2 0x1422 JUMP JUMPDEST POP PUSH0 PUSH1 0x1 DUP3 PUSH2 0x8A5 SWAP2 SWAP1 PUSH2 0x13C8 JUMP JUMPDEST DUP2 SLOAD DUP2 LT PUSH2 0x8B6 JUMPI PUSH2 0x8B5 PUSH2 0xF32 JUMP JUMPDEST JUMPDEST SWAP1 PUSH0 MSTORE PUSH1 0x20 PUSH0 KECCAK256 SWAP1 PUSH1 0x4 MUL ADD PUSH1 0x2 ADD SLOAD PUSH0 DUP4 DUP2 SLOAD DUP2 LT PUSH2 0x8D9 JUMPI PUSH2 0x8D8 PUSH2 0xF32 JUMP JUMPDEST JUMPDEST SWAP1 PUSH0 MSTORE PUSH1 0x20 PUSH0 KECCAK256 SWAP1 PUSH1 0x4 MUL ADD PUSH1 0x2 ADD DUP2 SWAP1 SSTORE POP PUSH0 PUSH1 0x1 DUP3 PUSH2 0x8FA SWAP2 SWAP1 PUSH2 0x13C8 JUMP JUMPDEST DUP2 SLOAD DUP2 LT PUSH2 0x90B JUMPI PUSH2 0x90A PUSH2 0xF32 JUMP JUMPDEST JUMPDEST SWAP1 PUSH0 MSTORE PUSH1 0x20 PUSH0 KECCAK256 SWAP1 PUSH1 0x4 MUL ADD PUSH1 0x3 ADD PUSH0 SWAP1 SLOAD SWAP1 PUSH2 0x100 EXP SWAP1 DIV PUSH1 0xFF AND PUSH0 DUP4 DUP2 SLOAD DUP2 LT PUSH2 0x93A JUMPI PUSH2 0x939 PUSH2 0xF32 JUMP JUMPDEST JUMPDEST SWAP1 PUSH0 MSTORE PUSH1 0x20 PUSH0 KECCAK256 SWAP1 PUSH1 0x4 MUL ADD PUSH1 0x3 ADD PUSH0 PUSH2 0x100 EXP DUP2 SLOAD DUP2 PUSH1 0xFF MUL NOT AND SWAP1 DUP4 PUSH1 0x2 DUP2 GT ISZERO PUSH2 0x96A JUMPI PUSH2 0x969 PUSH2 0xD0B JUMP JUMPDEST JUMPDEST MUL OR SWAP1 SSTORE POP PUSH0 DUP1 SLOAD DUP1 PUSH2 0x980 JUMPI PUSH2 0x97F PUSH2 0x1507 JUMP JUMPDEST JUMPDEST PUSH1 0x1 SWAP1 SUB DUP2 DUP2 SWAP1 PUSH0 MSTORE PUSH1 0x20 PUSH0 KECCAK256 SWAP1 PUSH1 0x4 MUL ADD PUSH0 PUSH0 DUP3 ADD PUSH0 PUSH2 0x9A1 SWAP2 SWAP1 PUSH2 0xA3F JUMP JUMPDEST PUSH1 0x1 DUP3 ADD PUSH0 PUSH2 0x9B0 SWAP2 SWAP1 PUSH2 0xA3F JUMP JUMPDEST PUSH1 0x2 DUP3 ADD PUSH0 SWAP1 SSTORE PUSH1 0x3 DUP3 ADD PUSH0 PUSH2 0x100 EXP DUP2 SLOAD SWAP1 PUSH1 0xFF MUL NOT AND SWAP1 SSTORE POP POP SWAP1 SSTORE PUSH32 0x3161055CCA1A1449621E9FA53C98D978C08B9DCBB09A44415A40BF21906F1070 PUSH1 0x40 MLOAD PUSH2 0x9FB SWAP1 PUSH2 0x157E JUMP JUMPDEST PUSH1 0x40 MLOAD DUP1 SWAP2 SUB SWAP1 LOG1 POP POP JUMP JUMPDEST PUSH1 0x40 MLOAD DUP1 PUSH1 0x80 ADD PUSH1 0x40 MSTORE DUP1 PUSH1 0x60 DUP2 MSTORE PUSH1 0x20 ADD PUSH1 0x60 DUP2 MSTORE PUSH1 0x20 ADD PUSH0 DUP2 MSTORE PUSH1 0x20 ADD PUSH0 PUSH1 0x2 DUP2 GT ISZERO PUSH2 0xA39 JUMPI PUSH2 0xA38 PUSH2 0xD0B JUMP JUMPDEST JUMPDEST DUP2 MSTORE POP SWAP1 JUMP JUMPDEST POP DUP1 SLOAD PUSH2 0xA4B SWAP1 PUSH2 0xF8C JUMP JUMPDEST PUSH0 DUP3 SSTORE DUP1 PUSH1 0x1F LT PUSH2 0xA5C JUMPI POP PUSH2 0xA79 JUMP JUMPDEST PUSH1 0x1F ADD PUSH1 0x20 SWAP1 DIV SWAP1 PUSH0 MSTORE PUSH1 0x20 PUSH0 KECCAK256 SWAP1 DUP2 ADD SWAP1 PUSH2 0xA78 SWAP2 SWAP1 PUSH2 0xA7C JUMP JUMPDEST JUMPDEST POP JUMP JUMPDEST JUMPDEST DUP1 DUP3 GT ISZERO PUSH2 0xA93 JUMPI PUSH0 DUP2 PUSH0 SWAP1 SSTORE POP PUSH1 0x1 ADD PUSH2 0xA7D JUMP JUMPDEST POP SWAP1 JUMP JUMPDEST PUSH0 PUSH1 0x40 MLOAD SWAP1 POP SWAP1 JUMP JUMPDEST PUSH0 PUSH0 REVERT JUMPDEST PUSH0 PUSH0 REVERT JUMPDEST PUSH0 DUP2 SWAP1 POP SWAP2 SWAP1 POP JUMP JUMPDEST PUSH2 0xABA DUP2 PUSH2 0xAA8 JUMP JUMPDEST DUP2 EQ PUSH2 0xAC4 JUMPI PUSH0 PUSH0 REVERT JUMPDEST POP JUMP JUMPDEST PUSH0 DUP2 CALLDATALOAD SWAP1 POP PUSH2 0xAD5 DUP2 PUSH2 0xAB1 JUMP JUMPDEST SWAP3 SWAP2 POP POP JUMP JUMPDEST PUSH0 PUSH0 REVERT JUMPDEST PUSH0 PUSH0 REVERT JUMPDEST PUSH0 PUSH1 0x1F NOT PUSH1 0x1F DUP4 ADD AND SWAP1 POP SWAP2 SWAP1 POP JUMP JUMPDEST PUSH32 0x4E487B7100000000000000000000000000000000000000000000000000000000 PUSH0 MSTORE PUSH1 0x41 PUSH1 0x4 MSTORE PUSH1 0x24 PUSH0 REVERT JUMPDEST PUSH2 0xB29 DUP3 PUSH2 0xAE3 JUMP JUMPDEST DUP2 ADD DUP2 DUP2 LT PUSH8 0xFFFFFFFFFFFFFFFF DUP3 GT OR ISZERO PUSH2 0xB48 JUMPI PUSH2 0xB47 PUSH2 0xAF3 JUMP JUMPDEST JUMPDEST DUP1 PUSH1 0x40 MSTORE POP POP POP JUMP JUMPDEST PUSH0 PUSH2 0xB5A PUSH2 0xA97 JUMP JUMPDEST SWAP1 POP PUSH2 0xB66 DUP3 DUP3 PUSH2 0xB20 JUMP JUMPDEST SWAP2 SWAP1 POP JUMP JUMPDEST PUSH0 PUSH8 0xFFFFFFFFFFFFFFFF DUP3 GT ISZERO PUSH2 0xB85 JUMPI PUSH2 0xB84 PUSH2 0xAF3 JUMP JUMPDEST JUMPDEST PUSH2 0xB8E DUP3 PUSH2 0xAE3 JUMP JUMPDEST SWAP1 POP PUSH1 0x20 DUP2 ADD SWAP1 POP SWAP2 SWAP1 POP JUMP JUMPDEST DUP3 DUP2 DUP4 CALLDATACOPY PUSH0 DUP4 DUP4 ADD MSTORE POP POP POP JUMP JUMPDEST PUSH0 PUSH2 0xBBB PUSH2 0xBB6 DUP5 PUSH2 0xB6B JUMP JUMPDEST PUSH2 0xB51 JUMP JUMPDEST SWAP1 POP DUP3 DUP2 MSTORE PUSH1 0x20 DUP2 ADD DUP5 DUP5 DUP5 ADD GT ISZERO PUSH2 0xBD7 JUMPI PUSH2 0xBD6 PUSH2 0xADF JUMP JUMPDEST JUMPDEST PUSH2 0xBE2 DUP5 DUP3 DUP6 PUSH2 0xB9B JUMP JUMPDEST POP SWAP4 SWAP3 POP POP POP JUMP JUMPDEST PUSH0 DUP3 PUSH1 0x1F DUP4 ADD SLT PUSH2 0xBFE JUMPI PUSH2 0xBFD PUSH2 0xADB JUMP JUMPDEST JUMPDEST DUP2 CALLDATALOAD PUSH2 0xC0E DUP5 DUP3 PUSH1 0x20 DUP7 ADD PUSH2 0xBA9 JUMP JUMPDEST SWAP2 POP POP SWAP3 SWAP2 POP POP JUMP JUMPDEST PUSH0 PUSH0 PUSH1 0x40 DUP4 DUP6 SUB SLT ISZERO PUSH2 0xC2D JUMPI PUSH2 0xC2C PUSH2 0xAA0 JUMP JUMPDEST JUMPDEST PUSH0 PUSH2 0xC3A DUP6 DUP3 DUP7 ADD PUSH2 0xAC7 JUMP JUMPDEST SWAP3 POP POP PUSH1 0x20 DUP4 ADD CALLDATALOAD PUSH8 0xFFFFFFFFFFFFFFFF DUP2 GT ISZERO PUSH2 0xC5B JUMPI PUSH2 0xC5A PUSH2 0xAA4 JUMP JUMPDEST JUMPDEST PUSH2 0xC67 DUP6 DUP3 DUP7 ADD PUSH2 0xBEA JUMP JUMPDEST SWAP2 POP POP SWAP3 POP SWAP3 SWAP1 POP JUMP JUMPDEST PUSH0 PUSH1 0x20 DUP3 DUP5 SUB SLT ISZERO PUSH2 0xC86 JUMPI PUSH2 0xC85 PUSH2 0xAA0 JUMP JUMPDEST JUMPDEST PUSH0 PUSH2 0xC93 DUP5 DUP3 DUP6 ADD PUSH2 0xAC7 JUMP JUMPDEST SWAP2 POP POP SWAP3 SWAP2 POP POP JUMP JUMPDEST PUSH0 DUP2 MLOAD SWAP1 POP SWAP2 SWAP1 POP JUMP JUMPDEST PUSH0 DUP3 DUP3 MSTORE PUSH1 0x20 DUP3 ADD SWAP1 POP SWAP3 SWAP2 POP POP JUMP JUMPDEST DUP3 DUP2 DUP4 MCOPY PUSH0 DUP4 DUP4 ADD MSTORE POP POP POP JUMP JUMPDEST PUSH0 PUSH2 0xCCE DUP3 PUSH2 0xC9C JUMP JUMPDEST PUSH2 0xCD8 DUP2 DUP6 PUSH2 0xCA6 JUMP JUMPDEST SWAP4 POP PUSH2 0xCE8 DUP2 DUP6 PUSH1 0x20 DUP7 ADD PUSH2 0xCB6 JUMP JUMPDEST PUSH2 0xCF1 DUP2 PUSH2 0xAE3 JUMP JUMPDEST DUP5 ADD SWAP2 POP POP SWAP3 SWAP2 POP POP JUMP JUMPDEST PUSH2 0xD05 DUP2 PUSH2 0xAA8 JUMP JUMPDEST DUP3 MSTORE POP POP JUMP JUMPDEST PUSH32 0x4E487B7100000000000000000000000000000000000000000000000000000000 PUSH0 MSTORE PUSH1 0x21 PUSH1 0x4 MSTORE PUSH1 0x24 PUSH0 REVERT JUMPDEST PUSH1 0x3 DUP2 LT PUSH2 0xD49 JUMPI PUSH2 0xD48 PUSH2 0xD0B JUMP JUMPDEST JUMPDEST POP JUMP JUMPDEST PUSH0 DUP2 SWAP1 POP PUSH2 0xD59 DUP3 PUSH2 0xD38 JUMP JUMPDEST SWAP2 SWAP1 POP JUMP JUMPDEST PUSH0 PUSH2 0xD68 DUP3 PUSH2 0xD4C JUMP JUMPDEST SWAP1 POP SWAP2 SWAP1 POP JUMP JUMPDEST PUSH2 0xD78 DUP2 PUSH2 0xD5E JUMP JUMPDEST DUP3 MSTORE POP POP JUMP JUMPDEST PUSH0 PUSH1 0x80 DUP3 ADD SWAP1 POP DUP2 DUP2 SUB PUSH0 DUP4 ADD MSTORE PUSH2 0xD96 DUP2 DUP8 PUSH2 0xCC4 JUMP JUMPDEST SWAP1 POP DUP2 DUP2 SUB PUSH1 0x20 DUP4 ADD MSTORE PUSH2 0xDAA DUP2 DUP7 PUSH2 0xCC4 JUMP JUMPDEST SWAP1 POP PUSH2 0xDB9 PUSH1 0x40 DUP4 ADD DUP6 PUSH2 0xCFC JUMP JUMPDEST PUSH2 0xDC6 PUSH1 0x60 DUP4 ADD DUP5 PUSH2 0xD6F JUMP JUMPDEST SWAP6 SWAP5 POP POP POP POP POP JUMP JUMPDEST PUSH0 DUP3 DUP3 MSTORE PUSH1 0x20 DUP3 ADD SWAP1 POP SWAP3 SWAP2 POP POP JUMP JUMPDEST PUSH0 PUSH2 0xDE9 DUP3 PUSH2 0xC9C JUMP JUMPDEST PUSH2 0xDF3 DUP2 DUP6 PUSH2 0xDCF JUMP JUMPDEST SWAP4 POP PUSH2 0xE03 DUP2 DUP6 PUSH1 0x20 DUP7 ADD PUSH2 0xCB6 JUMP JUMPDEST PUSH2 0xE0C DUP2 PUSH2 0xAE3 JUMP JUMPDEST DUP5 ADD SWAP2 POP POP SWAP3 SWAP2 POP POP JUMP JUMPDEST PUSH2 0xE20 DUP2 PUSH2 0xAA8 JUMP JUMPDEST DUP3 MSTORE POP POP JUMP JUMPDEST PUSH2 0xE2F DUP2 PUSH2 0xD5E JUMP JUMPDEST DUP3 MSTORE POP POP JUMP JUMPDEST PUSH0 PUSH1 0x80 DUP4 ADD PUSH0 DUP4 ADD MLOAD DUP5 DUP3 SUB PUSH0 DUP7 ADD MSTORE PUSH2 0xE4F DUP3 DUP3 PUSH2 0xDDF JUMP JUMPDEST SWAP2 POP POP PUSH1 0x20 DUP4 ADD MLOAD DUP5 DUP3 SUB PUSH1 0x20 DUP7 ADD MSTORE PUSH2 0xE69 DUP3 DUP3 PUSH2 0xDDF JUMP JUMPDEST SWAP2 POP POP PUSH1 0x40 DUP4 ADD MLOAD PUSH2 0xE7E PUSH1 0x40 DUP7 ADD DUP3 PUSH2 0xE17 JUMP JUMPDEST POP PUSH1 0x60 DUP4 ADD MLOAD PUSH2 0xE91 PUSH1 0x60 DUP7 ADD DUP3 PUSH2 0xE26 JUMP JUMPDEST POP DUP1 SWAP2 POP POP SWAP3 SWAP2 POP POP JUMP JUMPDEST PUSH0 PUSH1 0x20 DUP3 ADD SWAP1 POP DUP2 DUP2 SUB PUSH0 DUP4 ADD MSTORE PUSH2 0xEB4 DUP2 DUP5 PUSH2 0xE35 JUMP JUMPDEST SWAP1 POP SWAP3 SWAP2 POP POP JUMP JUMPDEST PUSH0 PUSH0 PUSH1 0x40 DUP4 DUP6 SUB SLT ISZERO PUSH2 0xED2 JUMPI PUSH2 0xED1 PUSH2 0xAA0 JUMP JUMPDEST JUMPDEST PUSH0 DUP4 ADD CALLDATALOAD PUSH8 0xFFFFFFFFFFFFFFFF DUP2 GT ISZERO PUSH2 0xEEF JUMPI PUSH2 0xEEE PUSH2 0xAA4 JUMP JUMPDEST JUMPDEST PUSH2 0xEFB DUP6 DUP3 DUP7 ADD PUSH2 0xBEA JUMP JUMPDEST SWAP3 POP POP PUSH1 0x20 DUP4 ADD CALLDATALOAD PUSH8 0xFFFFFFFFFFFFFFFF DUP2 GT ISZERO PUSH2 0xF1C JUMPI PUSH2 0xF1B PUSH2 0xAA4 JUMP JUMPDEST JUMPDEST PUSH2 0xF28 DUP6 DUP3 DUP7 ADD PUSH2 0xBEA JUMP JUMPDEST SWAP2 POP POP SWAP3 POP SWAP3 SWAP1 POP JUMP JUMPDEST PUSH32 0x4E487B7100000000000000000000000000000000000000000000000000000000 PUSH0 MSTORE PUSH1 0x32 PUSH1 0x4 MSTORE PUSH1 0x24 PUSH0 REVERT JUMPDEST PUSH32 0x4E487B7100000000000000000000000000000000000000000000000000000000 PUSH0 MSTORE PUSH1 0x22 PUSH1 0x4 MSTORE PUSH1 0x24 PUSH0 REVERT JUMPDEST PUSH0 PUSH1 0x2 DUP3 DIV SWAP1 POP PUSH1 0x1 DUP3 AND DUP1 PUSH2 0xFA3 JUMPI PUSH1 0x7F DUP3 AND SWAP2 POP JUMPDEST PUSH1 0x20 DUP3 LT DUP2 SUB PUSH2 0xFB6 JUMPI PUSH2 0xFB5 PUSH2 0xF5F JUMP JUMPDEST JUMPDEST POP SWAP2 SWAP1 POP JUMP JUMPDEST PUSH0 DUP2 SWAP1 POP DUP2 PUSH0 MSTORE PUSH1 0x20 PUSH0 KECCAK256 SWAP1 POP SWAP2 SWAP1 POP JUMP JUMPDEST PUSH0 PUSH1 0x20 PUSH1 0x1F DUP4 ADD DIV SWAP1 POP SWAP2 SWAP1 POP JUMP JUMPDEST PUSH0 DUP3 DUP3 SHL SWAP1 POP SWAP3 SWAP2 POP POP JUMP JUMPDEST PUSH0 PUSH1 0x8 DUP4 MUL PUSH2 0x1018 PUSH32 0xFFFFFFFFFFFFFFFFFFFFFFFFFFFFFFFFFFFFFFFFFFFFFFFFFFFFFFFFFFFFFFFF DUP3 PUSH2 0xFDD JUMP JUMPDEST PUSH2 0x1022 DUP7 DUP4 PUSH2 0xFDD JUMP JUMPDEST SWAP6 POP DUP1 NOT DUP5 AND SWAP4 POP DUP1 DUP7 AND DUP5 OR SWAP3 POP POP POP SWAP4 SWAP3 POP POP POP JUMP JUMPDEST PUSH0 DUP2 SWAP1 POP SWAP2 SWAP1 POP JUMP JUMPDEST PUSH0 PUSH2 0x105D PUSH2 0x1058 PUSH2 0x1053 DUP5 PUSH2 0xAA8 JUMP JUMPDEST PUSH2 0x103A JUMP JUMPDEST PUSH2 0xAA8 JUMP JUMPDEST SWAP1 POP SWAP2 SWAP1 POP JUMP JUMPDEST PUSH0 DUP2 SWAP1 POP SWAP2 SWAP1 POP JUMP JUMPDEST PUSH2 0x1076 DUP4 PUSH2 0x1043 JUMP JUMPDEST PUSH2 0x108A PUSH2 0x1082 DUP3 PUSH2 0x1064 JUMP JUMPDEST DUP5 DUP5 SLOAD PUSH2 0xFE9 JUMP JUMPDEST DUP3 SSTORE POP POP POP POP JUMP JUMPDEST PUSH0 PUSH0 SWAP1 POP SWAP1 JUMP JUMPDEST PUSH2 0x10A1 PUSH2 0x1092 JUMP JUMPDEST PUSH2 0x10AC DUP2 DUP5 DUP5 PUSH2 0x106D JUMP JUMPDEST POP POP POP JUMP JUMPDEST JUMPDEST DUP2 DUP2 LT ISZERO PUSH2 0x10CF JUMPI PUSH2 0x10C4 PUSH0 DUP3 PUSH2 0x1099 JUMP JUMPDEST PUSH1 0x1 DUP2 ADD SWAP1 POP PUSH2 0x10B2 JUMP JUMPDEST POP POP JUMP JUMPDEST PUSH1 0x1F DUP3 GT ISZERO PUSH2 0x1114 JUMPI PUSH2 0x10E5 DUP2 PUSH2 0xFBC JUMP JUMPDEST PUSH2 0x10EE DUP5 PUSH2 0xFCE JUMP JUMPDEST DUP2 ADD PUSH1 0x20 DUP6 LT ISZERO PUSH2 0x10FD JUMPI DUP2 SWAP1 POP JUMPDEST PUSH2 0x1111 PUSH2 0x1109 DUP6 PUSH2 0xFCE JUMP JUMPDEST DUP4 ADD DUP3 PUSH2 0x10B1 JUMP JUMPDEST POP POP JUMPDEST POP POP POP JUMP JUMPDEST PUSH0 DUP3 DUP3 SHR SWAP1 POP SWAP3 SWAP2 POP POP JUMP JUMPDEST PUSH0 PUSH2 0x1134 PUSH0 NOT DUP5 PUSH1 0x8 MUL PUSH2 0x1119 JUMP JUMPDEST NOT DUP1 DUP4 AND SWAP2 POP POP SWAP3 SWAP2 POP POP JUMP JUMPDEST PUSH0 PUSH2 0x114C DUP4 DUP4 PUSH2 0x1125 JUMP JUMPDEST SWAP2 POP DUP3 PUSH1 0x2 MUL DUP3 OR SWAP1 POP SWAP3 SWAP2 POP POP JUMP JUMPDEST PUSH2 0x1165 DUP3 PUSH2 0xC9C JUMP JUMPDEST PUSH8 0xFFFFFFFFFFFFFFFF DUP2 GT ISZERO PUSH2 0x117E JUMPI PUSH2 0x117D PUSH2 0xAF3 JUMP JUMPDEST JUMPDEST PUSH2 0x1188 DUP3 SLOAD PUSH2 0xF8C JUMP JUMPDEST PUSH2 0x1193 DUP3 DUP3 DUP6 PUSH2 0x10D3 JUMP JUMPDEST PUSH0 PUSH1 0x20 SWAP1 POP PUSH1 0x1F DUP4 GT PUSH1 0x1 DUP2 EQ PUSH2 0x11C4 JUMPI PUSH0 DUP5 ISZERO PUSH2 0x11B2 JUMPI DUP3 DUP8 ADD MLOAD SWAP1 POP JUMPDEST PUSH2 0x11BC DUP6 DUP3 PUSH2 0x1141 JUMP JUMPDEST DUP7 SSTORE POP PUSH2 0x1223 JUMP JUMPDEST PUSH1 0x1F NOT DUP5 AND PUSH2 0x11D2 DUP7 PUSH2 0xFBC JUMP JUMPDEST PUSH0 JUMPDEST DUP3 DUP2 LT ISZERO PUSH2 0x11F9 JUMPI DUP5 DUP10 ADD MLOAD DUP3 SSTORE PUSH1 0x1 DUP3 ADD SWAP2 POP PUSH1 0x20 DUP6 ADD SWAP5 POP PUSH1 0x20 DUP2 ADD SWAP1 POP PUSH2 0x11D4 JUMP JUMPDEST DUP7 DUP4 LT ISZERO PUSH2 0x1216 JUMPI DUP5 DUP10 ADD MLOAD PUSH2 0x1212 PUSH1 0x1F DUP10 AND DUP3 PUSH2 0x1125 JUMP JUMPDEST DUP4 SSTORE POP JUMPDEST PUSH1 0x1 PUSH1 0x2 DUP9 MUL ADD DUP9 SSTORE POP POP POP JUMPDEST POP POP POP POP POP POP JUMP JUMPDEST PUSH0 DUP2 SLOAD PUSH2 0x1237 DUP2 PUSH2 0xF8C JUMP JUMPDEST PUSH2 0x1241 DUP2 DUP7 PUSH2 0xDCF JUMP JUMPDEST SWAP5 POP PUSH1 0x1 DUP3 AND PUSH0 DUP2 EQ PUSH2 0x125B JUMPI PUSH1 0x1 DUP2 EQ PUSH2 0x1271 JUMPI PUSH2 0x12A3 JUMP JUMPDEST PUSH1 0xFF NOT DUP4 AND DUP7 MSTORE DUP2 ISZERO ISZERO PUSH1 0x20 MUL DUP7 ADD SWAP4 POP PUSH2 0x12A3 JUMP JUMPDEST PUSH2 0x127A DUP6 PUSH2 0xFBC JUMP JUMPDEST PUSH0 JUMPDEST DUP4 DUP2 LT ISZERO PUSH2 0x129B JUMPI DUP2 SLOAD DUP2 DUP10 ADD MSTORE PUSH1 0x1 DUP3 ADD SWAP2 POP PUSH1 0x20 DUP2 ADD SWAP1 POP PUSH2 0x127C JUMP JUMPDEST DUP1 DUP9 ADD SWAP6 POP POP POP JUMPDEST POP POP POP SWAP3 SWAP2 POP POP JUMP JUMPDEST PUSH0 DUP2 PUSH0 SHR SWAP1 POP SWAP2 SWAP1 POP JUMP JUMPDEST PUSH0 DUP2 SWAP1 POP SWAP2 SWAP1 POP JUMP JUMPDEST PUSH0 PUSH2 0x12D2 PUSH2 0x12CD DUP4 PUSH2 0x12AC JUMP JUMPDEST PUSH2 0x12B7 JUMP JUMPDEST SWAP1 POP SWAP2 SWAP1 POP JUMP JUMPDEST PUSH0 PUSH1 0xFF DUP3 AND SWAP1 POP SWAP2 SWAP1 POP JUMP JUMPDEST PUSH0 PUSH2 0x12F7 PUSH2 0x12F2 DUP4 PUSH2 0x12AC JUMP JUMPDEST PUSH2 0x12D9 JUMP JUMPDEST SWAP1 POP SWAP2 SWAP1 POP JUMP JUMPDEST PUSH0 PUSH1 0x80 DUP4 ADD PUSH0 PUSH0 DUP5 ADD DUP6 DUP4 SUB PUSH0 DUP8 ADD MSTORE PUSH2 0x1318 DUP4 DUP3 PUSH2 0x122B JUMP JUMPDEST SWAP3 POP POP PUSH1 0x1 DUP5 ADD DUP6 DUP4 SUB PUSH1 0x20 DUP8 ADD MSTORE PUSH2 0x1331 DUP4 DUP3 PUSH2 0x122B JUMP JUMPDEST SWAP3 POP POP PUSH1 0x2 DUP5 ADD SLOAD SWAP1 POP PUSH2 0x1344 DUP2 PUSH2 0x12C0 JUMP JUMPDEST PUSH2 0x1351 PUSH1 0x40 DUP8 ADD DUP3 PUSH2 0xE17 JUMP JUMPDEST POP PUSH1 0x3 DUP5 ADD SLOAD SWAP1 POP PUSH2 0x1362 DUP2 PUSH2 0x12E5 JUMP JUMPDEST PUSH2 0x136F PUSH1 0x60 DUP8 ADD DUP3 PUSH2 0xE26 JUMP JUMPDEST POP DUP2 SWAP3 POP POP POP SWAP3 SWAP2 POP POP JUMP JUMPDEST PUSH0 PUSH1 0x20 DUP3 ADD SWAP1 POP DUP2 DUP2 SUB PUSH0 DUP4 ADD MSTORE PUSH2 0x1393 DUP2 DUP5 PUSH2 0x12FE JUMP JUMPDEST SWAP1 POP SWAP3 SWAP2 POP POP JUMP JUMPDEST PUSH32 0x4E487B7100000000000000000000000000000000000000000000000000000000 PUSH0 MSTORE PUSH1 0x11 PUSH1 0x4 MSTORE PUSH1 0x24 PUSH0 REVERT JUMPDEST PUSH0 PUSH2 0x13D2 DUP3 PUSH2 0xAA8 JUMP JUMPDEST SWAP2 POP PUSH2 0x13DD DUP4 PUSH2 0xAA8 JUMP JUMPDEST SWAP3 POP DUP3 DUP3 SUB SWAP1 POP DUP2 DUP2 GT ISZERO PUSH2 0x13F5 JUMPI PUSH2 0x13F4 PUSH2 0x139B JUMP JUMPDEST JUMPDEST SWAP3 SWAP2 POP POP JUMP JUMPDEST PUSH0 DUP2 SLOAD SWAP1 POP PUSH2 0x1409 DUP2 PUSH2 0xF8C JUMP JUMPDEST SWAP1 POP SWAP2 SWAP1 POP JUMP JUMPDEST PUSH0 DUP2 SWAP1 POP DUP2 PUSH0 MSTORE PUSH1 0x20 PUSH0 KECCAK256 SWAP1 POP SWAP2 SWAP1 POP JUMP JUMPDEST DUP2 DUP2 SUB PUSH2 0x1430 JUMPI POP POP PUSH2 0x1505 JUMP JUMPDEST PUSH2 0x1439 DUP3 PUSH2 0x13FB JUMP JUMPDEST PUSH8 0xFFFFFFFFFFFFFFFF DUP2 GT ISZERO PUSH2 0x1452 JUMPI PUSH2 0x1451 PUSH2 0xAF3 JUMP JUMPDEST JUMPDEST PUSH2 0x145C DUP3 SLOAD PUSH2 0xF8C JUMP JUMPDEST PUSH2 0x1467 DUP3 DUP3 DUP6 PUSH2 0x10D3 JUMP JUMPDEST PUSH0 PUSH1 0x1F DUP4 GT PUSH1 0x1 DUP2 EQ PUSH2 0x1494 JUMPI PUSH0 DUP5 ISZERO PUSH2 0x1482 JUMPI DUP3 DUP8 ADD SLOAD SWAP1 POP JUMPDEST PUSH2 0x148C DUP6 DUP3 PUSH2 0x1141 JUMP JUMPDEST DUP7 SSTORE POP PUSH2 0x14FE JUMP JUMPDEST PUSH1 0x1F NOT DUP5 AND PUSH2 0x14A2 DUP8 PUSH2 0x1410 JUMP JUMPDEST SWAP7 POP PUSH2 0x14AD DUP7 PUSH2 0xFBC JUMP JUMPDEST PUSH0 JUMPDEST DUP3 DUP2 LT ISZERO PUSH2 0x14D4 JUMPI DUP5 DUP10 ADD SLOAD DUP3 SSTORE PUSH1 0x1 DUP3 ADD SWAP2 POP PUSH1 0x1 DUP6 ADD SWAP5 POP PUSH1 0x20 DUP2 ADD SWAP1 POP PUSH2 0x14AF JUMP JUMPDEST DUP7 DUP4 LT ISZERO PUSH2 0x14F1 JUMPI DUP5 DUP10 ADD SLOAD PUSH2 0x14ED PUSH1 0x1F DUP10 AND DUP3 PUSH2 0x1125 JUMP JUMPDEST DUP4 SSTORE POP JUMPDEST PUSH1 0x1 PUSH1 0x2 DUP9 MUL ADD DUP9 SSTORE POP POP POP JUMPDEST POP POP POP POP POP POP JUMPDEST JUMP JUMPDEST PUSH32 0x4E487B7100000000000000000000000000000000000000000000000000000000 PUSH0 MSTORE PUSH1 0x31 PUSH1 0x4 MSTORE PUSH1 0x24 PUSH0 REVERT JUMPDEST PUSH32 0x6F6B000000000000000000000000000000000000000000000000000000000000 PUSH0 DUP3 ADD MSTORE POP JUMP JUMPDEST PUSH0 PUSH2 0x1568 PUSH1 0x2 DUP4 PUSH2 0xCA6 JUMP JUMPDEST SWAP2 POP PUSH2 0x1573 DUP3 PUSH2 0x1534 JUMP JUMPDEST PUSH1 0x20 DUP3 ADD SWAP1 POP SWAP2 SWAP1 POP JUMP JUMPDEST PUSH0 PUSH1 0x20 DUP3 ADD SWAP1 POP DUP2 DUP2 SUB PUSH0 DUP4 ADD MSTORE PUSH2 0x1595 DUP2 PUSH2 0x155C JUMP JUMPDEST SWAP1 POP SWAP2 SWAP1 POP JUMP INVALID LOG2 PUSH5 0x6970667358 0x22 SLT KECCAK256 BLOCKHASH STATICCALL JUMPI OR 0xAB PUSH10 0x260E34AD3ABB7ED64CCC SWAP6 0xD4 CALL 0xD6 0xE9 GT SWAP10 POP STOP 0xB6 CALLCODE MSIZE MLOAD GASPRICE LT GAS PUSH5 0x736F6C6343 STOP ADDMOD 0x1E STOP CALLER "
		},
		"gasEstimates": {
			"creation": {
				"codeDepositCost": "1117200",
				"executionCost": "1158",
				"totalCost": "1118358"
			},
			"external": {
				"addTarea(string,string)": "infinite",
				"deleteTarea(uint256)": "infinite",
				"getTarea(uint256)": "infinite",
				"s_tareas(uint256)": "infinite",
				"updateDescripcionTarea(uint256,string)": "infinite",
				"updateEstadoCompletoTarea(uint256)": "infinite",
				"updateEstadoEnProcesoTarea(uint256)": "infinite",
				"updateTituloTarea(uint256,string)": "infinite"
			}
		},
		"methodIdentifiers": {
			"addTarea(string,string)": "edde19ff",
			"deleteTarea(uint256)": "fddbf5fb",
			"getTarea(uint256)": "9e0943f8",
			"s_tareas(uint256)": "92a3351a",
			"updateDescripcionTarea(uint256,string)": "20fb63fd",
			"updateEstadoCompletoTarea(uint256)": "7af0e0f9",
			"updateEstadoEnProcesoTarea(uint256)": "3101af7a",
			"updateTituloTarea(uint256,string)": "0cde08e0"
		}
	},
	"abi": [
		{
			"anonymous": false,
			"inputs": [
				{
					"components": [
						{
							"internalType": "string",
							"name": "titulo",
							"type": "string"
						},
						{
							"internalType": "string",
							"name": "descripcion",
							"type": "string"
						},
						{
							"internalType": "uint256",
							"name": "fecha_creacion",
							"type": "uint256"
						},
						{
							"internalType": "enum ToDoList.s_estado",
							"name": "estado",
							"type": "uint8"
						}
					],
					"indexed": false,
					"internalType": "struct ToDoList.Tarea",
					"name": "tarea",
					"type": "tuple"
				}
			],
			"name": "ToDoList_AddTarea",
			"type": "event"
		},
		{
			"anonymous": false,
			"inputs": [
				{
					"indexed": false,
					"internalType": "string",
					"name": "msj",
					"type": "string"
				}
			],
			"name": "ToDoList_DeleteTarea",
			"type": "event"
		},
		{
			"anonymous": false,
			"inputs": [
				{
					"components": [
						{
							"internalType": "string",
							"name": "titulo",
							"type": "string"
						},
						{
							"internalType": "string",
							"name": "descripcion",
							"type": "string"
						},
						{
							"internalType": "uint256",
							"name": "fecha_creacion",
							"type": "uint256"
						},
						{
							"internalType": "enum ToDoList.s_estado",
							"name": "estado",
							"type": "uint8"
						}
					],
					"indexed": false,
					"internalType": "struct ToDoList.Tarea",
					"name": "tarea",
					"type": "tuple"
				}
			],
			"name": "ToDoList_UpdateDescripcionTarea",
			"type": "event"
		},
		{
			"anonymous": false,
			"inputs": [
				{
					"components": [
						{
							"internalType": "string",
							"name": "titulo",
							"type": "string"
						},
						{
							"internalType": "string",
							"name": "descripcion",
							"type": "string"
						},
						{
							"internalType": "uint256",
							"name": "fecha_creacion",
							"type": "uint256"
						},
						{
							"internalType": "enum ToDoList.s_estado",
							"name": "estado",
							"type": "uint8"
						}
					],
					"indexed": false,
					"internalType": "struct ToDoList.Tarea",
					"name": "tarea",
					"type": "tuple"
				}
			],
			"name": "ToDoList_UpdateEstadoTarea",
			"type": "event"
		},
		{
			"anonymous": false,
			"inputs": [
				{
					"components": [
						{
							"internalType": "string",
							"name": "titulo",
							"type": "string"
						},
						{
							"internalType": "string",
							"name": "descripcion",
							"type": "string"
						},
						{
							"internalType": "uint256",
							"name": "fecha_creacion",
							"type": "uint256"
						},
						{
							"internalType": "enum ToDoList.s_estado",
							"name": "estado",
							"type": "uint8"
						}
					],
					"indexed": false,
					"internalType": "struct ToDoList.Tarea",
					"name": "tarea",
					"type": "tuple"
				}
			],
			"name": "ToDoList_UpdateTituloTarea",
			"type": "event"
		},
		{
			"inputs": [
				{
					"internalType": "string",
					"name": "_titulo",
					"type": "string"
				},
				{
					"internalType": "string",
					"name": "_descripcion",
					"type": "string"
				}
			],
			"name": "addTarea",
			"outputs": [],
			"stateMutability": "nonpayable",
			"type": "function"
		},
		{
			"inputs": [
				{
					"internalType": "uint256",
					"name": "_index",
					"type": "uint256"
				}
			],
			"name": "deleteTarea",
			"outputs": [],
			"stateMutability": "nonpayable",
			"type": "function"
		},
		{
			"inputs": [
				{
					"internalType": "uint256",
					"name": "_index",
					"type": "uint256"
				}
			],
			"name": "getTarea",
			"outputs": [
				{
					"components": [
						{
							"internalType": "string",
							"name": "titulo",
							"type": "string"
						},
						{
							"internalType": "string",
							"name": "descripcion",
							"type": "string"
						},
						{
							"internalType": "uint256",
							"name": "fecha_creacion",
							"type": "uint256"
						},
						{
							"internalType": "enum ToDoList.s_estado",
							"name": "estado",
							"type": "uint8"
						}
					],
					"internalType": "struct ToDoList.Tarea",
					"name": "",
					"type": "tuple"
				}
			],
			"stateMutability": "view",
			"type": "function"
		},
		{
			"inputs": [
				{
					"internalType": "uint256",
					"name": "",
					"type": "uint256"
				}
			],
			"name": "s_tareas",
			"outputs": [
				{
					"internalType": "string",
					"name": "titulo",
					"type": "string"
				},
				{
					"internalType": "string",
					"name": "descripcion",
					"type": "string"
				},
				{
					"internalType": "uint256",
					"name": "fecha_creacion",
					"type": "uint256"
				},
				{
					"internalType": "enum ToDoList.s_estado",
					"name": "estado",
					"type": "uint8"
				}
			],
			"stateMutability": "view",
			"type": "function"
		},
		{
			"inputs": [
				{
					"internalType": "uint256",
					"name": "_index",
					"type": "uint256"
				},
				{
					"internalType": "string",
					"name": "_descripcion",
					"type": "string"
				}
			],
			"name": "updateDescripcionTarea",
			"outputs": [],
			"stateMutability": "nonpayable",
			"type": "function"
		},
		{
			"inputs": [
				{
					"internalType": "uint256",
					"name": "_index",
					"type": "uint256"
				}
			],
			"name": "updateEstadoCompletoTarea",
			"outputs": [],
			"stateMutability": "nonpayable",
			"type": "function"
		},
		{
			"inputs": [
				{
					"internalType": "uint256",
					"name": "_index",
					"type": "uint256"
				}
			],
			"name": "updateEstadoEnProcesoTarea",
			"outputs": [],
			"stateMutability": "nonpayable",
			"type": "function"
		},
		{
			"inputs": [
				{
					"internalType": "uint256",
					"name": "_index",
					"type": "uint256"
				},
				{
					"internalType": "string",
					"name": "_titulo",
					"type": "string"
				}
			],
			"name": "updateTituloTarea",
			"outputs": [],
			"stateMutability": "nonpayable",
			"type": "function"
		}
	]
}